:020000040800F2
:10000000E0070020912A0008ED020008EF02000836
:10001000F3020008F7020008FB02000800000000DD
:10002000000000000000000000000000FF020008C7
:100030000103000800000000030300080503000896
:10004000AB2A0008AB2A0008AB2A0008AB2A00083C
:10005000AB2A0008AB2A0008AB2A0008AB2A00082C
:10006000AB2A0008AB2A0008AB2A0008AB2A00081C
:10007000AB2A0008AB2A0008AB2A0008AB2A00080C
:10008000AB2A0008AB2A0008AB2A0008AB2A0008FC
:10009000AB2A0008AB2A0008AB2A0008AB2A0008EC
:1000A000AB2A0008AB2A0008AB2A0008AB2A0008DC
:1000B000AB2A000893070008AB2A0008AB2A000807
:1000C000AB2A0008AB2A0008AB2A0008AB2A0008BC
:1000D000AB2A000807100008AB2A0008AB2A00086A
:1000E000AB2A0008AB2A0008AB2A000800F002F88F
:1000F00000F043F80AA090E8000C82448344AAF17F
:100100000107DA4501D100F038F8AFF2090EBAE87C
:100110000F0013F0010F18BFFB1A43F0010318473B
:100120005439000074390000103A24BF78C878C1EF
:10013000FAD8520724BF30C830C144BF04680C60ED
:10014000704700000023002400250026103A28BF35
:1001500078C1FBD8520728BF30C148BF0B60704739
:100160001FB502F083FD04000020002102F0DAFD3B
:10017000401C60601FBD10B510BD02F052FD11465D
:10018000FFF7EEFF00F008F802F082FD03B4FFF77E
:10019000F2FF03BC00F0DCFE08B500F06FFE4FF488
:1001A000A06000F075FF4FF4E13000F0E0FE00F0D9
:1001B0009BF900F0B5F98F2142F20F7000F0FCFAC4
:1001C00000F0D7FD3C4B3D4A00213D4800F044FB88
:1001D0003C4B3A4A00213A4800F03EFB4FF4A070F5
:1001E00039490860F020486040F2DA24254662E090
:1001F00000F008FA3449304A08683449098800F0A8
:100200002FFB204484B230492E4A4868304909887F
:1002100000F026FB281A85B2B4F5967F01DA4FF478
:100220009674B4F5966F01DD4FF49664B5F5C87F0A
:1002300001DA4FF4C875B5F5617F01DD4FF46175E2
:100240002146244802F0DEFB2946224802F0DCFB6E
:1002500021480068012806D002280DD0032814D0B8
:10026000042824D11AE0202003461C4A02210090D1
:10027000302000F0D9FD1DE020200346184A02215D
:100280000090302000F0D0FD14E020200346154AF5
:1002900002210090302000F0C7FD0BE02020034633
:1002A000114A02210090302000F0BEFD02E000F073
:1002B00058FC00BF00BF9BE74C0000209A99993E74
:1002C0008FC2F53C80000020000000200C000020C0
:1002D0000E000020000400400800002082320008C8
:1002E000023300088233000802340008704700BF60
:1002F000FEE700BFFEE700BFFEE700BFFEE7704776
:1003000070477047704700000CB5002001900090C6
:100310006C48006840F480306A49086000BF694852
:10032000006800F4003000900198401C0190009893
:1003300018B90198B0F5A06FF1D16248006800F4D7
:10034000003010B10120009001E0002000900098E2
:10035000012843D15C48006840F010005A49086009
:100360000846006820F0030008600846006840F076
:100370000200086053484068524948600846406897
:1003800048600846406840F480604860084640681D
:1003900020F47C1048600846406840F4E81048604B
:1003A0000846006840F08070086000BF454800685B
:1003B00000F000700028F9D04248406820F00300A7
:1003C000404948600846406840F00200486000BF6D
:1003D0003C48406800F00C000828F9D10CBD10B56D
:1003E000FFF792FF10BD10B53648006840F00100DD
:1003F000344908600846406834490840314948603B
:1004000008460068324908402E49086008460068DE
:1004100020F4802008600846406820F4FE00486010
:100420004FF41F008860FFF7DAFF4FF000602949A2
:10043000086010BD10B5002100200022214B5B6830
:1004400003F00C0121B1042906D0082928D107E0C6
:10045000214B224C236027E01F4B204C236023E0DC
:10046000184B5B6803F47010164B5B6803F4803222
:10047000022303EB904022B9194B4343174C2360EE
:100480000DE0104B5B6803F4003323B1144B43437E
:10049000124C236003E0104B4343104C236003E0F5
:1004A0000D4B0E4C236000BF00BF064B5B68C3F3CF
:1004B00003130C4CE15C094B1B68CB40074C2360D9
:1004C00010BD000000100240002002400000FFF8B4
:1004D000FFFFF6FE08ED00E000127A001000002099
:1004E00000093D001400002008B50121102001F092
:1004F00059F94FF40050ADF8000010208DF80300BA
:1005000003208DF802006946044800F08FFE4FF486
:100510000051024800F037FF08BD00000010014004
:1005200008B501210C2001F03DF94FF44050ADF821
:10053000000048208DF8030069462F4800F076FE41
:100540000120ADF8000028208DF8030069462B48F3
:1005500000F06CFE08BD10B5044614B10120284916
:1005600008702748007878B34FF48051224800F093
:10057000F0FE58B14FF400511F4800F0EAFE28B1D8
:1005800001211E4800F0E5FE01281ED10A2000F0DE
:10059000B2FC00201A4908704FF48051164800F050
:1005A000D8FE08B9012010BD4FF40051124800F0E8
:1005B000D0FE08B90220F6E70121104800F0C9FE7C
:1005C000012817D10320EEE7FFE74FF480510A48D6
:1005D00000F0BFFE01280DD14103074800F0B9FE2D
:1005E000012807D10121054800F0B3FE10B9012010
:1005F000034908700020D6E7000C014000080140C4
:1006000024000020FEB500240020029001900090FC
:100610000025002600274048008800F400400028FC
:1006200061D03E48006808B9012000E000203B4945
:10063000086039480088C0F30D003949088000205F
:100640003849088036E03849364A1288885C2328C1
:1006500001D1012429E0242801D1022425E0262803
:1006600001D1032421E030281EDB39281CDC012CB9
:1006700007D1032D05DA29466A1CD5B202AA5054C7
:1006800012E0022C07D1032E05DA3146721CD6B2D5
:1006900001AA505408E0032C06D1012F04DA394690
:1006A0007A1CD7B20DF8010000BF1E480088401C1C
:1006B0001C4908801B480088194909888842C2DB08
:1006C00002A802F006FA1949086001A802F001FA2E
:1006D00016494860684602F0FCF915490860002098
:1006E0000D49088017E013480088401C1149088014
:1006F000084600881E2190FBF1F201FB120038B978
:100700000648006808B9012000E00020034908609D
:100710000A2000F0F0FBFEBD34000020B4012242AC
:100720002800002026000020B40000200000002047
:10073000080000202A0000207FB505460C46012154
:10074000022001F03CF8ADF80850ADF8044000205C
:10075000ADF80A00ADF8060001A93C4801F05EFBC7
:1007600001221146394801F0D0FE1D208DF800000D
:1007700000208DF8010003208DF8020001208DF883
:100780000300684600F089FC0121304801F0A2FE18
:100790007FBD10B501212D4802F065F958B1012146
:1007A0002A4802F071F92A48006808B9012000E0DF
:1007B00000202749086010BD30B589B005460C46B9
:1007C0000121022000F0FBFF0121052000F0EAFFDB
:1007D000C020ADF8200018208DF8230003208DF8EC
:1007E000220008A91B4800F021FDADF81850ADF813
:1007F00014400020ADF81A00ADF8160005A9134802
:1008000001F00CFB7020ADF804000120ADF80600EB
:1008100040F2DA20ADF80A000220ADF80C0001A980
:100820000A4801F038FB01A9084801F076FB0821CD
:10083000064801F088FF0821044801F084FF0121E7
:10084000024801F047FE09B030BD0000000400403E
:10085000B401224200080140186059609A60704754
:100860002DE9F04105460E461446701BA061A069B3
:1008700002F0AEFB0746216802F0C2FBE060A0690F
:1008800002F0A6FB8046616802F0BAFB07462169C8
:1008900002F05EFA2061D4E90612881A02F098FB91
:1008A0000746A16802F0ACFB6061D4E9030102F0E5
:1008B0004FFA8046616902F04BFA074602F06CFB82
:1008C0002063A069E061206BBDE8F0812DE9F0476D
:1008D00005460E461446701BA061A06902F078FB25
:1008E0000746216802F08CFBE060A06902F070FB13
:1008F0008046616802F084FB0746216902F028FA0D
:1009000020610323D4E9061203FB02110223226AA9
:1009100003FB0211626A03FB12110323A26A03FBA9
:100920001211E26A881A02F053FB80464FF07E51A2
:10093000A06802F065FB81464FF0834102F06AFA3D
:100940000746414602F05CFB6061D4E9030102F016
:10095000FFF98046616902F0FBF9074602F01CFBD3
:100960002063A06AE062606AA062206A6062E06957
:100970002062A069E061206BBDE8F0872DE9F047B7
:1009800005460E461446701BA061D4E90612881A6B
:1009900002F01EFB0746216802F032FBE060A0690E
:1009A00002F016FB8046616802F02AFB07462169C7
:1009B00002F0CEF920610223D4E9061203FB1211E2
:1009C000226A881802F004FB0746A16802F018FBAF
:1009D0006061D4E9030102F0BBF98246616902F06B
:1009E000B7F98046206B02F0F3FA8146414602F0E7
:1009F000AFF9074602F0D0FA2063E0692062A069EF
:100A0000E061206BBDE8F08708B50121082000F007
:100A1000C9FE14208DF8030003208DF802004FF466
:100A20008070ADF800006946FD4800F0FFFB4FF410
:100A30000070ADF800006946F94800F0F7FB0122AC
:100A40001102F74800F0A3FC01225102F44800F023
:100A50009EFC08BD10B501225102F14800F097FC40
:100A600001221102EE4800F092FC00224FF40071C6
:100A7000EB4800F08CFC00224FF48071E84800F055
:100A800086FC10BD10B500224FF40071E44800F060
:100A90007EFC01221102E24800F079FC01225102A1
:100AA000DF4800F074FC10BD70B50546002419E065
:100AB00080202041284008B1012000E000200246AB
:100AC0004FF40071D64800F062FC01221102D448B4
:100AD00000F05DFC00224FF48071D14800F057FC1B
:100AE000601CC4B2082CE3DB01221102CC4800F0E8
:100AF0004EFC00224FF48071C94800F048FC70BDE4
:100B000010B50446FFF7A6FF7820FFF7CDFF0020C1
:100B1000FFF7CAFF2046FFF7C7FFFFF7B3FF10BD7F
:100B200010B50446FFF796FF7820FFF7BDFF402081
:100B3000FFF7BAFF2046FFF7B7FFFFF7A3FF10BD8F
:100B400070B505460C4645F0B000FFF7D9FF1021FF
:100B500041EA1410FFF7D4FF04F00F00FFF7D0FFB5
:100B600070BD70B500240EE000212046FFF7E8FFBD
:100B7000002504E00020FFF7D3FF681CC5B2802DDC
:100B8000F8DB601CC4B2082CEEDB70BD2DE9F0412F
:100B900005460E461746721ED206110E6A1E5206F2
:100BA000100EFFF7CDFF002409E0A7F120019D4AB8
:100BB00002EB0111085DFFF7B3FF601CC4B2082C03
:100BC000F3DB721ED206110E6A1E012303EB4202F2
:100BD000D0B2FFF7B5FF00240BE0A7F12001914A46
:100BE00002EB011204F10801505CFFF799FF601C51
:100BF000C4B2082CF1DBBDE8F0812DE9F0410746D5
:100C00000E461546002407E02A5D3019C1B2384669
:100C1000FFF7BCFF601CC4B2285D0028F4D1BDE81A
:100C2000F08110B50246012000E050430B1EA1F1F7
:100C30000101FAD110BD2DE9F04780460E46174656
:100C40001D46002415E0281B411E0A20FFF7E9FF7E
:100C5000B7FBF0F00A21B0FBF1F201FB120000F14A
:100C600030093019C1B24A464046FFF78FFF601C79
:100C7000C4B2AC42E7DBBDE8F0872DE9F04781461E
:100C8000884615461E46002D06DB2B224146484667
:100C9000FFF77CFF2F4605E02D2241464846FFF72F
:100CA00075FF6F42002417E0301B411E0A20FFF73A
:100CB000B8FFB7FBF0F00A21B0FBF1F201FB120024
:100CC00000F1300A08EB0400401CC1B2524648460D
:100CD000FFF75CFF601CC4B2B442E5DBBDE8F087FF
:100CE0002DE9F04781460E4690461F4600241DE040
:100CF000381B411E1020FFF794FFB8FBF0F000F006
:100D00000F050A2D08DA05F13000C2B23019C1B260
:100D10004846FFF73BFF07E005F13700C2B2301944
:100D2000C1B24846FFF732FF601CC4B2BC42DFDBF1
:100D3000BDE8F0872DE9F04780460E4617461D4670
:100D4000002412E0281B411E0220FFF76AFFB7FBB8
:100D5000F0F000F0010000F130093019C1B24A464C
:100D60004046FFF713FF601CC4B2AC42EADBBDE8AB
:100D7000F08770B5002406E0002500E06D1CB5F595
:100D80007A7FFBD3641CB4F57A7FF5D3FFF73CFE82
:100D9000AE20FFF7B5FED520FFF7B2FE8020FFF7AB
:100DA000AFFEA820FFF7ACFE3F20FFF7A9FED3203F
:100DB000FFF7A6FE0020FFF7A3FE4020FFF7A0FEEE
:100DC000A120FFF79DFEC820FFF79AFEDA20FFF76B
:100DD00097FE1220FFF794FE8120FFF791FECF20AF
:100DE000FFF78EFED920FFF78BFEF120FFF788FE7C
:100DF000DB20FFF785FE3020FFF782FEA420FFF7FF
:100E00007FFEA620FFF77CFE8D20FFF779FE1420E1
:100E1000FFF776FEAF20FFF773FEFFF7A2FE70BD6F
:100E2000000C0140823400082DE9F05F0746884637
:100E300091461D46DDF828A00AF10700C11700EB16
:100E40005171C1F3C70B002413E008EB0401C8B2D1
:100E50003946FFF775FE002607E004FB056119F827
:100E60000100FFF75DFE701CC6B2AE42F5DB601CF0
:100E7000C4B25C45E9DBBDE8F09F000010B56FF03F
:100E8000040000F054F92E4800682E49B0FBF1F040
:100E90002D4908700846007800EB4001C1EBC010F6
:100EA0004FF6FF7101EAC0002849088010BD0146D5
:100EB000254A12784A434FF0E0235A6100229A6192
:100EC0001A46126942F001021A6100BF4FF0E02297
:100ED000106900F001021AB100F48032002AF5D046
:100EE0004FF0E022126922F001024FF0E0231A6174
:100EF00000229A6170470146144A12884A434FF013
:100F0000E0235A6100229A611A46126942F00102F6
:100F10001A6100BF4FF0E022106900F001021AB11F
:100F200000F48032002AF5D04FF0E022126922F05E
:100F300001024FF0E0231A6100229A61704700001D
:100F40001000002000127A002C0000202E0000204B
:100F5000014600BF704700BF494A128802F04002B4
:100F6000002AF9D0C2B2464B1B1D1A80704710B53B
:100F700086B00446012144F2040000F013FC4FF453
:100F80000070ADF8140003208DF8160018208DF8BD
:100F9000170005A93B4800F049F94FF48060ADF80F
:100FA000140004208DF8170005A9364800F03EF91A
:100FB00025208DF8000003208DF801008DF8020037
:100FC00001208DF80300684600F067F801940020C6
:100FD000ADF80800ADF80A00ADF80C00ADF810004F
:100FE0000C20ADF80E0001A9254800F082FC01227A
:100FF00040F22551224800F014FD0121204800F064
:1010000004FD06B010BD10B540F225511C4800F09B
:10101000EDFD10B31A4800F069FDC4B21A4800880B
:1010200000F40040C8B91848008800F4804060B15E
:101030000A2C03D000201449088020E012480088C0
:1010400040F400401049088019E00D2C06D10E48EC
:10105000008840F480400C49088010E00A4800886D
:10106000C0F30D0009490C5407480088401C06498C
:10107000088008460088C72801DD0020088010BDD0
:10108000003801400008014034000020B400002076
:1010900031490143314A1160704770B50021002386
:1010A0000F22C47804B32D4C246804F4E064C4F522
:1010B000E064210AC1F10403CA40447804FA03F150
:1010C0008478144021430901254C0678A155047801
:1010D00004F01F050124AC4005786D11AD0005F149
:1010E000E025C5F8004109E0047804F01F0501245B
:1010F000AC401C4D0678761145F8264070BD1A4A62
:101100000A400243154B1B1F1A60704739B1134A3E
:10111000121D12680243114B1B1D1A6006E00F4A94
:10112000121D126882430D4B1B1D1A607047042864
:1011300008D14FF0E021096941F004014FF0E022AD
:10114000116107E04FF0E021096921F004014FF03F
:10115000E0221161704700000000FA050CED00E08C
:1011600000E400E080E100E080FFFF1F10B50446CE
:10117000CC48844208D10121042000F02DFB00213D
:10118000042000F029FB46E0C748844208D1012131
:10119000082000F021FB0021082000F01DFB3AE0B0
:1011A000C248844208D10121102000F015FB002123
:1011B000102000F011FB2EE0BD48844208D101212F
:1011C000202000F009FB0021202000F005FB22E098
:1011D000B848844208D10121402000F0FDFA0021E6
:1011E000402000F0F9FA16E0B348844208D101210A
:1011F000802000F0F1FA0021802000F0EDFA0AE0F2
:10120000AE48844207D10121801500F0E5FA0021A3
:10121000A01500F0E1FA10BD10B50121084600F05C
:10122000DBFA0021012000F0D7FA10BD2DE9F041D2
:10123000024600250026002000230024002791F804
:1012400003C00CF00F0591F803C00CF0100CBCF1BA
:10125000000F03D091F802C04CEA050591F800C0D8
:10126000BCF1000F31D0146800202BE04FF0010CCE
:101270000CFA00F3B1F800C00CEA03069E4220D13C
:1012800083004FF00F0C0CFA03F7BC4305FA03FC84
:101290004CEA040491F803C0BCF1280F06D14FF0CA
:1012A000010C0CFA00FCC2F814C00AE091F803C06B
:1012B000BCF1480F05D14FF0010C0CFA00FCC2F84C
:1012C00010C0401C0828D1D31460B1F800C0BCF194
:1012D000FF0F34DD546800202EE000F1080C4FF0C1
:1012E000010808FA0CF3B1F800C00CEA03069E42AC
:1012F00021D183004FF00F0C0CFA03F7BC4305FA21
:1013000003FC4CEA040491F803C0BCF1280F05D19A
:1013100000F1080C08FA0CF8C2F8148091F803C028
:10132000BCF1480F07D100F1080C4FF0010808FA92
:101330000CF8C2F81080401C0828CED35460BDE8D9
:10134000F0814FF6FF710180022181700421C1708C
:1013500070470246002093680B400BB1012000E06B
:10136000002070470146886880B27047024600201E
:10137000D3680B400BB1012000E00020704701460C
:10138000C86880B2704701617047416170470AB117
:10139000016100E041617047C16070474FF48032E5
:1013A0000A43826181618261826982697047024673
:1013B0000020434B18684FF68073184040EA021033
:1013C00008433F4B186070473E49C8617047F0B50D
:1013D0000A46002300240021002500F00046B6F153
:1013E000004F02D1364EF16901E0354E7168C0F30D
:1013F000034583B200F44016B6F5401F08D121F032
:1014000070612F4E766826F070662D4F7E6012E078
:1014100000F48016B6F5801F06D1032606FA05F4FF
:10142000A14341F0706106E0460D360103FA06F66D
:10143000B14341F0706122B1460D360103FA06F660
:10144000314300F00046B6F1004F02D11C4EF1616D
:1014500001E01B4E7160F0BD30B500228B071C0F00
:101460000F2303FA04F2164B08338C1053F8243080
:101470009343134C08348D1044F8253023468C10C8
:1014800053F824308C07240F00FA04F423430C4C47
:1014900008348D1044F8253030BD0A49DC3108602D
:1014A0007047000000080140000C0140001001409E
:1014B0000014014000180140001C014000200140C0
:1014C0000000014000002042DF48006840F00100B9
:1014D000DD49086008464068DC490840DA49486050
:1014E00008460068DA490840D7490860084600689D
:1014F00020F4802008600846406820F4FE00486020
:101500004FF41F0088607047CF49096821F480318B
:10151000CD4A11601146096821F480211160B0F5AF
:10152000803F03D0B0F5802F0ED106E0C649096890
:1015300041F48031C44A116007E0C349096841F4AD
:10154000A021C14A116000E000BF00BF704710B584
:1015500001460022002300204A11012A02D1BA4C80
:10156000236806E0022A02D1B74C236A01E0B64C98
:10157000636A01F01F02012494401C400CB1012059
:1015800000E0002010BD38B50020009000240025A8
:1015900000BF3120FFF7DBFF05460098401C00909C
:1015A0000098B0F5A06F01D0002DF2D03120FFF7E8
:1015B000CEFF08B1012400E00024204638BD0146DA
:1015C0000020A14A106820F0F80040EAC100106035
:1015D0007047A04908607047024600209A4B58683F
:1015E00020F47C1042EA01031843974B586070477F
:1015F00098490866704701460020934A506820F0D9
:1016000003000843506070478F48406800F00C00AA
:101610007047014600208C4A506820F0F0000843D3
:101620005060704701460020874A506820F4E0600F
:1016300008435060704701460020834A506820F4F8
:10164000605040EAC1005060704729B17E4A527A2A
:1016500002437D4B5A7204E07B4A527A82437A4BB2
:101660005A7270477B49D8310860704701460020A4
:10167000754A506820F4404008435060704700218C
:10168000714A20321170704A82F82010012802D06D
:1016900004280AD104E001216B4A2032117005E0D0
:1016A0000521694A2032117000E000BF00BF704779
:1016B0006949086070476449096A0143624A1162D6
:1016C0007047654944390860704730B500210022F1
:1016D000002400235C4D6D6805F00C0121B1042944
:1016E00005D0082923D105E05C4D056022E05B4D63
:1016F00005601FE0544D6D6805F47012524D6D6821
:1017000005F48034022505EB92421CB9544D554333
:1017100005600BE04C4D6D6805F400351DB1504D72
:101720005543056002E04D4D5543056002E04B4DC9
:10173000056000BF00BF444D6D6805F0F001090968
:10174000484D6B5C0568DD4045603F4D6D6805F4B4
:10175000E061090A434D6B5C4568DD4085603A4DA8
:101760006D6805F46051C90A3E4D6B5C4568DD400B
:10177000C560354D6D6805F44041890B3A4D6B5C91
:10178000C568B5FBF3F5056130BD29B12E4A526934
:1017900002432D4B5A6104E02B4A526982432A4B83
:1017A0005A61704729B1284A92690243264B9A61CF
:1017B00004E0254A92698243234B9A61704729B11C
:1017C000214AD2690243204BDA6104E01E4AD26901
:1017D00082431D4BDA61704729B11B4AD26802432C
:1017E000194BDA6004E0184AD2688243164BDA607B
:1017F000704729B1144A12690243134B1A6104E07D
:10180000114A12698243104B1A61704712494039DC
:10181000086070470F49C86470470B49C87170472A
:101820000948406A40F080700749486270470146A5
:101830000020054A92680A400AB1012000E0002019
:101840007047014988727047001002400000FFF89D
:10185000FFFFF6FE000042428004424200127A007E
:1018600000093D00360000204600002010B5044667
:10187000FB48844209D101218803FFF7ADFF002115
:101880004FF48040FFF7A8FF32E0F648844209D1C8
:1018900001214804FFF7ADFF00214FF40030FFF7AE
:1018A000A8FF25E0F048844209D101218804FFF710
:1018B000A0FF00214FF48020FFF79BFF18E0EB48CA
:1018C000844209D10121C804FFF793FF00214FF49E
:1018D0000020FFF78EFF0BE0E548844208D101218C
:1018E0000805FFF786FF00214FF48010FFF781FF06
:1018F00010BD2DE9F04786B005460E460024A246ED
:1019000000BFA1460027B08900B100BF2F462C8A36
:101910004CF6FF700440F08804432C82AC894EF6EC
:10192000F3100440B08831890843718908430443A7
:10193000AC81AC8A4FF6FF400440B0890443AC82CE
:1019400001A8FFF7C2FEC648874202D1DDF810A009
:1019500001E0DDF80CA0A88900F4004040B10AEBDA
:10196000CA0000EB0A1031684900B0FBF1F807E04B
:101970000AEBCA0000EB0A1031688900B0FBF1F8ED
:101980006420B8FBF0F004012009642101FB1089F8
:10199000A88900F4004040B1322000EBC900B0FB40
:1019A000F1F000F00700044308E0322000EB0910DA
:1019B0006421B0FBF1F000F00F0004432C8106B06D
:1019C000BDE8F0874FF41651016000218180C1808D
:1019D00001810C21418100218181704710B50246AF
:1019E0000020108A4FF2FF0318400B884C882343D5
:1019F0008C882343CC8823431843108210BD0021D8
:101A0000018041808180C180704721B1828942F488
:101A10000052828104E082894DF6FF731A40828170
:101A20007047F0B50346002400260025002040F64C
:101A30006A17B94200D100BF1846C1F3421401F041
:101A40001F06012707FA06F5012C01D10C3004E02E
:101A5000022C01D1103000E014301AB107682F4376
:101A6000076002E00768AF430760F0BD1AB1838AE0
:101A70000B43838202E0838A8B4383827047028A0E
:101A80004FF6F0731A400282028A0A4302827047BC
:101A900082894FF2FF731A40828182890A438281D0
:101AA000704721B1828942F00202828104E082897A
:101AB0004FF6FD731A4082817047028A4FF6DF733A
:101AC0001A400282028A0A430282704721B1028AC6
:101AD00042F48042028204E0028A4BF6FF731A400D
:101AE00002827047C1F308028280704701468888ED
:101AF000C0F308007047818941F00101818170477E
:101B0000028BD2B20283028B42EA01220283704727
:101B1000028B02F47F420283028B0A4302837047E6
:101B200021B1828A42F02002828204E0828A4FF64A
:101B3000DF731A408282704721B1828A42F010021C
:101B4000828204E0828A4FF6EF731A4082827047E5
:101B500021B1828A42F00802828204E0828A4FF632
:101B6000F7731A408282704721B1828942F40042A1
:101B7000828103E08289C2F30E028281704721B123
:101B8000828A42F40062828204E0828A4FF2FF730A
:101B90001A4082827047828A4FF6FB731A40828213
:101BA000828A0A438282704721B1828A42F002020D
:101BB000828204E0828A4FF6FD731A408282704767
:101BC00002460020B1F5007F00D100BF13880B4012
:101BD0000BB1012000E00020704701F40072B2F563
:101BE000007F00D100BFCA430280704770B5024633
:101BF000002400230025002040F66A16B14200D1DF
:101C000000BFC1F3421501F01F03012606FA03F3DA
:101C1000012D02D19689334006E0022D02D1168AA9
:101C2000334001E0968A33400C12012606FA04F490
:101C30001688344013B10CB1012000E0002070BDC3
:101C400010B50022002340F66A14A14200D100BF63
:101C50000A1201249440A3B2DC43048010BD0000AA
:101C6000003801400044004000480040004C004063
:101C70000050004010B50446FE48844208D10121BE
:101C8000C014FFF7A9FD0021E014FFF7A5FDC4E093
:101C9000B4F1804F08D101210846FFF7AAFD0021C9
:101CA0000120FFF7A6FDB8E0F348844208D10121E6
:101CB0000220FFF79EFD00210220FFF79AFDACE015
:101CC000EE48844208D101210420FFF792FD002153
:101CD0000420FFF78EFDA0E0E948844208D10121ED
:101CE0000820FFF786FD00210820FFF782FD94E021
:101CF000E448844208D101211020FFF77AFD002139
:101D00001020FFF776FD88E0DF48844208D10121EA
:101D10002020FFF76EFD00212020FFF76AFD7CE008
:101D2000DA48844208D101214014FFF755FD002113
:101D30006014FFF751FD70E0D548844209D10121BC
:101D4000C804FFF749FD00214FF40020FFF744FDD0
:101D500063E0D048844209D101210805FFF73CFD2A
:101D600000214FF48010FFF737FD56E0CA48844247
:101D700009D101214805FFF72FFD00214FF4001084
:101D8000FFF72AFD49E0C548844208D101214020DF
:101D9000FFF72FFD00214020FFF72BFD3DE0C0485D
:101DA000844208D101218020FFF723FD00218020FB
:101DB000FFF71FFD31E0BB48844208D101218015A7
:101DC000FFF717FD0021A015FFF713FD25E0B6482A
:101DD000844209D101210804FFF7FEFC00214FF4E1
:101DE0008030FFF7F9FC18E0B048844209D10121A6
:101DF0004804FFF7F1FC00214FF40030FFF7ECFC42
:101E00000BE0AB48844208D101218804FFF7E4FCD1
:101E100000214FF48020FFF7DFFC10BD0022028874
:101E2000944B98420ED0994B98420BD0B0F1804F12
:101E300008D0914B984205D0904B984202D0904BDD
:101E4000984204D14FF68F731A404B881A438D4B3A
:101E5000984207D08C4B984204D04FF6FF431A406B
:101E6000CB881A4302808B8883850B880385814B3E
:101E700098420BD0854B984208D08B4B984205D0A6
:101E80008A4B984202D08A4B984201D10B7A038642
:101E900001238382704770B5002400220023058C43
:101EA0004FF6FE7635400584028C8388048B4FF60E
:101EB0008F752C40B51E2C400D882C43751E2A4072
:101EC0000D892A434D882A436A4DA8420BD06F4D95
:101ED000A84208D0744DA84205D0744DA84202D043
:101EE000734DA84213D14FF6F7752A404D892A4306
:101EF0004FF6FB752A408D882A434FF6FF652B402D
:101F00004FF6FF552B408D892B43CD892B43838082
:101F10000483CD888586028470BD70B500240022BC
:101F20000023058C4FF6EF7635400584028C8388BC
:101F3000048B48F6FF752C404FF6FF452C400D886A
:101F40004FF6FF7606EA05252C434FF6DF752A404B
:101F50000D8906EA05152A434D8806EA05152A4328
:101F6000444DA84202D0494DA8421DD14FF67F757D
:101F70002A404D894FF6FF7606EA05152A434FF6AB
:101F8000BF752A408D8806EA05152A434FF6FF35AE
:101F90002B404FF2FF752B408D8906EA85052B43B8
:101FA000CD8906EA85052B4383800483CD88058788
:101FB000028470BD70B5002400220023058C4FF60A
:101FC000FF6635400584028C8388848B4FF68F75BD
:101FD0002C404FF6FC752C400D882C434FF6FF55D6
:101FE0002A400D894FF6FF7606EA05252A434D88DB
:101FF00006EA05252A431F4DA84202D0234DA842D8
:102000001DD14FF2FF752A404D894FF6FF7606EA43
:1020100005252A434FF6FF352A408D8806EA052517
:102020002A434EF6FF752B404DF6FF752B408D89E8
:1020300006EA05152B43CD8906EA05152B43838057
:102040008483CD888587028470BD70B5002200230B
:102050000024058C4EF6FF7635400584038C848879
:10206000828B48F6FF752A404FF6FF452A400D88BF
:1020700020E00000002C0140000400400008004067
:10208000000C0040001000400014004000340140EB
:10209000004C014000500140005401400018004035
:1020A000001C00400020004000400140004401406E
:1020B000004801404FF6FF7606EA05252A434DF613
:1020C000FF752B400D8906EA05352B434D8806EA3E
:1020D00005352B43FA4DA84202D0FA4DA84208D14B
:1020E0004BF6FF752C408D894FF6FF7606EA851575
:1020F0002C4384808283CD88A0F84050038470BD37
:10210000828B4FF2FF331A408283828B4FF6FF732C
:1021100003EA01231A4382837047F0B50C46154643
:10212000002200210026078C4EF6FF7C07EA0C07F0
:102130000784828B018C4FF6FF7707EA043640F65E
:10214000FF473A404FF6FF7707EA05273A434FF635
:10215000FF7707EA03373A43D94FB8420ED0D94F39
:10216000B8420BD0B0F1804F08D0D74FB84205D05D
:10217000D64FB84202D0D64FB84206D14DF6FF77BF
:10218000394046F48057394305E047F6FF57394058
:1021900044F48057394382830184F0BD828B4FF62B
:1021A000F3731A408283828B0A4382837047F0B5AF
:1021B0000C461546002200210026078C4FF6FF6CC6
:1021C00007EA0C070784828B018C4FF6FF7707EA3A
:1021D00004264FF60C773A404FF6FF7707EA0317CD
:1021E0002F433A43B64FB8420ED0B64FB8420BD049
:1021F000B0F1804F08D0B44FB84205D0B34FB842C9
:1022000002D0B34FB84206D14FF6FF57394046F4DB
:102210008077394305E04FF2FF57394044F4807727
:10222000394382830184F0BD028B4FF2FF331A40A1
:102230000283028B4FF6FF7303EA01231A430283E2
:102240007047F0B50C461546002200210026078C89
:102250004FF6EF7C07EA0C070784028B018C4FF6E0
:10226000FF7707EA041640F6FF473A404FF6FF773C
:1022700007EA03373A434FF6FF7707EA05273A4361
:102280008F4FB8420ED08F4FB8420BD0B0F1804F75
:1022900008D08D4FB84205D08C4FB84202D08C4F39
:1022A000B84206D14FF6DF77394046F01007394380
:1022B00005E04FF65F77394044F010073943028359
:1022C0000184F0BD028B4FF6F3731A400283028B38
:1022D0000A4302837047F0B50C46154600220021E0
:1022E000068C4FF6FE773E400684028B018C4FF63B
:1022F0000C7632407E1C06EA03162E433243704EA3
:10230000B0420ED06F4EB0420BD0B0F1804F08D02B
:102310006D4EB04205D06D4EB04202D06C4EB04210
:1023200006D14FF6FD76314044F00106314305E019
:102330004FF6F576314044F00106314302830184C3
:10234000F0BD70B505460C465D4885420ED05D482F
:1023500085420BD0B5F1804F08D05B48854205D04F
:102360005A48854202D05A48854200D100E000BF59
:10237000208850B92389A28861882846FFF7ABFFDF
:10238000E1882846FFF79EFF25E0208804280AD12F
:102390002389A28861882846FFF753FFE1882846F1
:1023A000FFF742FF17E0208808280AD12389A28876
:1023B00061882846FFF7FBFEE1882846FFF7EEFE1E
:1023C00009E02389A28861882846FFF7A6FEE188F4
:1023D0002846FFF795FE70BD2DE9F04105460C46F5
:1023E00000260127608808B9022600E00026A088A0
:1023F000012801D1022700E001272088A0B9238904
:10240000A28861882846FFF766FFE1882846FFF723
:1024100059FF23893A4631462846FFF712FFE188E3
:102420002846FFF701FF13E02389A2886188284628
:10243000FFF707FFE1882846FFF7F6FE23893A46B3
:1024400031462846FFF747FFE1882846FFF73AFF65
:10245000BDE8F0810A884B881A438B881A43CB88E1
:102460001A430B891A434B891A438B891A43A0F8E4
:10247000442070474FF6FF71818000210180C180A8
:102480004180017270470021018041808180C180BC
:10249000018141818181C18170470021018041809A
:1024A000012181800021C1800181704700210180CC
:1024B00041808180C180018141818181704700001C
:1024C000002C01400034014000040040000800409E
:1024D000000C004021B1028842F00102028004E0B9
:1024E00002884FF6FE731A400280704731B1B0F88F
:1024F000442042F40042A0F8442005E0B0F8442013
:10250000C2F30E02A0F8442070471AB183890B432E
:10251000838102E083898B43838170478182704786
:1025200041EA0203A0F8483070471AB183890B438F
:10253000838102E083898B438381704701894FF651
:10254000F8721140018170470A46002101894FF657
:102550008F73194011430181704730B504460D4611
:1025600029462046FFF7F0FF208940F00700208130
:1025700030BD2DE9F04104460D4616461F46602D3C
:1025800006D13B46012231462046FFF75AFE05E0C0
:102590003B46012231462046FFF79DFE2946204654
:1025A000FFF7D2FF208940F007002081BDE8F081CD
:1025B00030B50C4600210189C9B24FF6FF7505EA16
:1025C0000325154325432943018130BD2DE9F04101
:1025D00005460E4617469846002443463A4631467D
:1025E0002846FFF7E5FF2C894FF6F870044044F0C9
:1025F00007044FF68F70044044F070042C81BDE84E
:10260000F081F0B504460D4616461F463B4632465D
:1026100029462046FFF7CCFF208940F480402081E6
:10262000F0BD0185828270470A46002101884FF67D
:102630008F731940114301807047F0B50C46154661
:102640001E460021002200230189028B038C4FF6D5
:10265000F877394021434FF6FC473A4040F20117E2
:102660003A434FF6DD773B404FF6FF7707EA061710
:102670002F433B43018102830384F0BD0A460021BE
:10268000018B4FF68F7319401143018370470A463F
:102690000021018B48F6FF7319404FF6FF7303EAE0
:1026A00002231943018370470A460021818B4FF6AC
:1026B0008F7319401143818370470A460021818B33
:1026C00048F6FF7319404FF6FF7303EA02231943DC
:1026D0008183704721B1028842F08002028004E0C9
:1026E00002884FF67F731A400280704721B18288BA
:1026F00042F00402828004E082884FF6FB731A40A5
:102700008280704721B1828842F00802828004E012
:1027100082884FF6F7731A408280704721B1828811
:1027200042F00102828004E082884FF6FE731A4074
:10273000828070470A460021018B4FF6F7731940DB
:102740001143018370470A460021018B4FF2FF734A
:1027500019404FF6FF7303EA0223194301837047C0
:102760000A460021818B4FF6F7731940114381838C
:1027700070470A460021818B4FF2FF7319404FF6D4
:10278000FF7303EA02231943818370470A4600213D
:10279000018B4FF6FB7319401143018370470A46C2
:1027A0000021018B4FF6FF3319404FF6FF7303EA08
:1027B00002231943018370470A460021818B4FF69B
:1027C000FB7319401143818370470A460021818BB6
:1027D0004FF6FF3319404FF6FF7303EA0223194304
:1027E000818370470A460021018B4FF67F731940A1
:1027F0001143018370470A460021018BC1F30E018A
:102800004FF6FF7303EA02231943018370470A4618
:102810000021818B4FF67F731940114381837047EC
:102820000A460021818BC1F30E014FF6FF7303EAC4
:1028300002231943818370470A460021018C4FF619
:10284000FD7319401143018470470A460021018C31
:102850004FF6F77319401143018470470A4600216F
:10286000018C4FF6DF7319404FF6FF7303EA021332
:102870001943018470470A460021018C4FF67F738B
:1028800019404FF6FF7303EA02131943018470479E
:102890000A460021018C4FF6FF5319404FF6FF7393
:1028A00003EA02231943018470470A460021018C80
:1028B0004FF2FF7319404FF6FF7303EA02231943E7
:1028C000018470470A460021018C4DF6FF731940C0
:1028D0004FF6FF7303EA023319430184704730B5A2
:1028E000002301248C40A3B2048C9C430484048CF8
:1028F00002FA01F5ADB22C43048430BD30B500239B
:1029000004248C40A3B2048C9C430484048C02FAFB
:1029100001F5ADB22C43048430BD70B503460020F0
:1029200000241846183001258D40ACB21D8CA543FB
:102930001D8409B1082909D100EB6100056825F063
:10294000700505600568154305600EE00D1FC5F3B1
:102950004E052844056825F4E045056005684FF6F6
:10296000FF7606EA02263543056070BD21B1028874
:1029700042F00202028004E002884FF6FD731A4022
:102980000280704721B1028842F00402028004E014
:1029900002884FF6FB731A400280704721B182888B
:1029A00042F08002828004E082884FF67F731A40F2
:1029B0008280704702884FF6F7731A4002800288BF
:1029C0000A430280704782884FF68F731A408280D4
:1029D00082880A438280704702894FF6F8731A4052
:1029E000028102890A430281704702894FF67F7390
:1029F0001A40028102890A4302817047818470472C
:102A0000818570478186704701877047818770474D
:102A1000A0F84010704702884FF6FF431A4002802A
:102A200002880A43028070470146888E704701463B
:102A3000088F70470146888F70470146B1F8400003
:102A400070470146888C70470146088D70470246E2
:102A50000020138A0B400BB1012000E000207047DA
:102A6000CA430282704730B502460020002300248A
:102A7000158A05EA0103958905EA010413B10CB131
:102A8000012000E0002030BDCA43028270470000F0
:102A90000948804709480047FEE7FEE7FEE7FEE7F2
:102AA000FEE7FEE7FEE7FEE7FEE7FEE7044805492E
:102AB000054A064B70470000E7030008ED000008D8
:102AC000E0010020E0070020E0030020E0030020F8
:102AD000704770B5064600F00DF8046805463046AC
:102AE0000A22002100F00AF82C6070BD7047704780
:102AF00070477047004870477C0100202DE9F0477F
:102B000091460F4680460446002614F8015B2DB11D
:102B100000F030F80068405DC007F6D12B2D02D0E0
:102B20002D2D18D0641E4A463946204600F02AF85A
:102B300027B13968A14201D1C7F800804FF00204E3
:102B400071050BD54042002803DDFFF7D3FF046079
:102B5000A007BDE8F08746F48066E4E70028F8DACD
:102B6000FFF7C8FF04606FF00040F2E700487047CD
:102B70007C01002010B500F079F8001D10BD00BFE9
:102B8000A50100002DE9F05F824615468B4600271F
:102B90000AF10104B9460078302801D09DB113E054
:102BA00014F8010B0127782803D0582801D045B12B
:102BB0000AE00DB1102D07D1002714F8010B1025E4
:102BC00002E0082500E00A250026B0460EE005FBDD
:102BD000080005FB06F101271FFA80F801EB1046FB
:102BE000B6F5803F00D3B94614F8010B294600F032
:102BF00041F80028EBDABBF1000F05D00FB1641EDD
:102C000000E05446CBF80040B9F1000F06D0FFF7C2
:102C100071FF02210160C81EBDE8F09F48EA06402E
:102C2000FAE77546FFF7A2FFAE4605006946534630
:102C300020F00700854618B020B5FFF737FFBDE844
:102C400020404FF000064FF000074FF000084FF013
:102C5000000B21F00701AC46ACE8C009ACE8C009A4
:102C6000ACE8C009ACE8C0098D4670470048704721
:102C70009C0100203A2800D2303820F02002412A5E
:102C800001D3A2F13700884201D34FF0FF307047E3
:102C900010B50446AFF300802046BDE81040FDF7B4
:102CA00075BA00004FF0013C50F8042B51F8043B7A
:102CB0009A4221D1A2EB0C03934313EACC1317D110
:102CC00050F8042B51F8043B9A4215D1A2EB0C03A7
:102CD000934313EACC130BD150F8042B51F8043B67
:102CE0009A4209D1A2EB0C03934313EACC13DBD035
:102CF0004FF00000704700BFD01A01BAB1FA81F15D
:102D000001F0180122FA01F0CB40C1F12001DBB241
:102D1000C0B2C01A2CFA01F3D11A914311EAC311BF
:102D2000E6D1704710B500290AD00878002807D0EE
:102D300005487844FFF7B6FF002801D0002010BDF9
:102D40000248784410BD0000620D00005A0D0000DA
:102D500090EA010F48BF81F0004100F12482421A3D
:102D60003CBF801A89184FEAD0524FF07F4C1CEAC2
:102D7000410FA2EBD15318BF9CEA026F00F03B80D9
:102D80004FF0004C4CEA00204CEA012121FA03FCF0
:102D900010EB0C0C1ED202F1FF325FEA1C2040EB5C
:102DA000C25038BF70471CF07F0F4FEA400C18BF6D
:102DB000BCF17F4F38BF7047C3F12003994008BF73
:102DC00020F00100BCF17F4F38BF7047A0F1C04038
:102DD00000F0DDB94FEA3C00000A40EBC25028BFCA
:102DE0001CF0FF0F4FEA400CE6D018BFBCF17F4F3C
:102DF00038BF7047EAE79CEA026F05D010EA5C0F23
:102E000008BF00F00040704710B500F07AF900BF2D
:102E100064FBBE3E4FF47F0C1CEAD0121EBF1CEABE
:102E2000D11392EA0C0F93EA0C0F00F0858090EA20
:102E3000010F48BF42F4807240F4000C41F40000DE
:102E40002CF07F4120F07F4000B58142A2EB0302CD
:102E50000FF2081CACEB504EC0F100009EF800E0F1
:102E60004FEA4E0E00FB0EFC38BF49004FEA2C1C07
:102E700002F5FA020CFB0EF34FEACE1E4FEA112CBC
:102E80004FEAC1210EEB635E42EB22420EFB0CFCCB
:102E90004FEA1C5300FB03114FEA112C4FEA01319A
:102EA0000EFB0CFC4FEADC4C00FB0C11C14228BFAE
:102EB00009184CEB03335DF804EB10EB410143EBD5
:102EC000C250B2F57C0F38BF704729D512F0F00F11
:102ED0001CBF00F1C04000F00040704700818283B9
:102EE0008485868788898B8C8D8E8F919293959619
:102EF00097999A9C9D9FA0A2A3A5A7A8AAACAEB0A3
:102F0000B2B3B5B7B9BCBEC0C2C5C7C9CCCED1D4A7
:102F1000D7D9DCDFE2E6E9ECF0F3F7FAFE000000D7
:102F20004FEA400C0CF1807CBCF17E4F28BF70470B
:102F3000B0F1C04000F02BB990EA010F0CEAD113B8
:102F400048BF42F48072624538BF634507D213F42C
:102F50007F0F16D080EA010000F00040704710B5E6
:102F600000F0CFF8097EFC3E00F005B880EA0100D1
:102F700000F00040704780EA010000F0004000F0DF
:102F800006B912F47F0F04BF0248704780EA0100BF
:102F900000F0FDB80000C07F41000B0ED3F19E028F
:102FA00008D950F400034FEA032323FA02F048BF84
:102FB0004042704710B500F0A4F800BF4992248049
:102FC000002070476FF0004282EA20007047000046
:102FD00010F0004148BF4042B0FA80F310FA03F20B
:102FE000C3F19D030BD051EAC35101EB12205306EC
:102FF00038BF704700F1010008BF20F001007047A2
:103000004FF47F0C1CEAD0121EBF1CEAD11392EAC7
:103010000C0F93EA0C0F00F0478090EA010F48BFB5
:1030200042F480724FF0004C4CEA00204CEA01213F
:1030300002EB0302A0FB0113A2F50002002918BF56
:1030400043F001035B0028BF4FEA330342EB224207
:103050005FEA132C4CEBC2502EBFBCEB436FB2F5B2
:103060007C0F70474FEA036CBCF1004F08BF20F0A3
:103070000100B2F57C0F38BF70470BD582F0FF021C
:1030800012F5803FC8BF704700F1C040D8BF00F0C4
:103090000040704700F5000C5FEA4C0C48BF7047D9
:1030A000B0F1C04000F073B890EA010F0CEAD11300
:1030B00048BF42F48072624538BF634504D280EA5B
:1030C000010000F00040704710B500F01AF800BF92
:1030D0008900013E00F007B800F009B85FEA410C32
:1030E0005FEA1C6C08D080EA010000F050B85FEA8B
:1030F000400C5FEA1C6CF6D14FF00040A0F5800058
:1031000070470EF1020E2EF0030E5EF8044B2442BF
:1031100004D44FEA4102B2F17F4F11D84FEA400385
:10312000B3F17F4F0CD80ED14FEAD07CB2F17F4F74
:103130000CEB4C0C0CF1020C08BF4CEBD17C04E006
:103140004FF0080C01E04FEAD17C0CEB4C0324FA61
:1031500003F404F00704B4F1040C06D20EEB840C63
:10316000BDE810404CF0010C6047DFE80CF00708A8
:1031700002024FF00040A0F5800010BD084642005A
:1031800018BFD2F1807288BF00F0004010BDFF214F
:1031900041EAD050C005704790EA010F48BF81F066
:1031A00000413FF5DCAD421A04D882F00042A0EBAA
:1031B000020011444FEAD0524FF07F4C1CEA410FFD
:1031C000A2EBD15318BF9CEA026F4AD04FF0004CDB
:1031D0004CEA00204CEA012121FA03FCB0EB0C0C74
:1031E0000FD412F0FE0F36D05FEA4C001DD500124E
:1031F00040EBC25038BF70471CF03F0F18BF7047FC
:103200000BE0A2F101025FEA1C2040EBC25038BF84
:1032100070471CF07F0F18BF7047C3F1200399401F
:1032200014BF401E20F00100704780084FEA1223AF
:1032300008BF7047B0FA80FCA2EB0C02CCF1280C5E
:1032400060FA0CF093EA122F04BF00EBC2507047F3
:103250004FEAC3707047130A5FEADC1008BF70477B
:10326000F6E79CEA026F04D010EA5C0F08BF00206A
:10327000704710B5FFF745FF40DFF63E81F0004094
:103280007047000000000000000E1F3F7F7F7FFF9F
:10329000FFFFFFFFFF7F7F7F3F1F0E00000000004A
:1032A00000000000000080C0E0F0F8FCFEFEFEFF21
:1032B000FFFFFFFFFFFEFEFEFCF8F0E0C080000015
:1032C00000000000070F1F1F3F3F7F7F7F7F7F7C35
:1032D0007C7E7E7C7C7F7F7F7F7F3F3F1F1F0F0731
:1032E000000000000000000080C0E0E0F0F0F8F80E
:1032F000F8F8F8F8F8F0F0E0E0C080000000000016
:103300000000000000000000000E1F3F7F7F7FFFD5
:10331000FFFFFFFFFF7F7F7F3F1F0E0000000000C9
:1033200000000000000080C0E0F0F8FCFEFEFEFFA0
:10333000FFFFFFFFFFFEFEFEFCF8F0E0C080000094
:1033400000000000E0F0F8F8FCFCFEFEFEFEFE3E91
:103350003E7E7E3E3EFEFEFEFEFEFCFCF8F8F0E009
:103360000000000000000000070F1F1F3F3F7B7B95
:103370007B7B7B7B7B3F3F1F1F0F07000000000014
:103380000000000000000000000E1F3F7F7F7FFF55
:10339000FFFFFFFFFF7F7F7F3F1F0E000000000049
:1033A00000000000000080C0E0F0F8FCFEFEFEFF20
:1033B000FFFFFFFFFFFEFEFEFCF8F0E0C080000014
:1033C000000000000000000000FEFFFFFF8181817F
:1033D00081818181818181FFFFFFFE00000000006B
:1033E0000000000000000000007FFFFFFF808080E1
:1033F00080808080808080FFFFFF7F0000000000D1
:103400000000000000000000E0701C0E1F3F7FFF66
:10341000FFFFFFFFFF7F3F1F0E1C70E0000000005A
:1034200000000000000080C0E0F0F8FCFEFEFEFF9F
:10343000FFFFFFFFFFFEFEFEFCF8F0E0C080000093
:1034400000000000E0F0F8F8FCFCFEFEFEFEFE3E90
:103450003E7E7E3E3EFEFEFEFEFEFCFCF8F8F0E008
:103460000000000000000000070F1F1F3F3F7B7B94
:103470007B7B7B7B7B3F3F1F1F0F07000000000013
:10348000000000000000000000000000000000003C
:103490000000000000F800000000000000333300CE
:1034A0000000000014081408000000242424240054
:1034B0000000000A0A3E0A3E0A0A002A2AFE2AFEE4
:1034C0002A2A00083E282A2A1A080022FE2A2A2A26
:1034D0002A3800002222100804020049490911215B
:1034E0004284001824241A0A2A3000314A4D4A31F5
:1034F0004A490000000C0C060000000000303000BB
:103500000000000204080808040200402010101007
:10351000204000402010101020400002040808083D
:103520000402000004023F020400000810FC10081E
:103530000000000008083E08080000101010FE10EF
:10354000101000000000000C0C060000000000300D
:1035500030000000080808080800000010101010D3
:10356000100000000000000C0C0000000000003003
:1035700030000000020408102040002040800102BA
:103580000408001C2222262A322C003E49494949BF
:10359000493E0000080CFE08080000101010FE1044
:1035A00010000020222222262A300042424A526283
:1035B0004A46001028242222221C00224949494957
:1035C0004936000C0A0A0A2AFE0A0030282424FE82
:1035D0002020003C22222020202000234A4A4A4961
:1035E000493E001E2A2A2A2A2E10003E49494949EE
:1035F000493A00020202024282FE004121110905FD
:103600000301001C2222221C221C003A4949493A8B
:10361000493A0008162A2A2A2A3C002E49494949D3
:10362000493E0000000C0C0000000000003030009B
:1036300000000000000C0C000C0600000030300000
:1036400030000002040810080402002010080408DA
:1036500010200014141414141414000000FEFE00B2
:1036600000000020100804081020000204081008C0
:10367000040200002022221E020200000040407FBF
:103680000101003C222A2A2A2A00003E41514945D4
:10369000413E0004040C142444FE007E090909097B
:1036A000090000FE222222221E0000FE494949494B
:1036B0004936003C22220202021C003E41414141A7
:1036C000412200FE222222221C0800FE41414141EB
:1036D000221C00FE22221E02020200FE4A4A4A4A20
:1036E0004A4A00FE22221E02020200FE0A0A0A0ABA
:1036F0000A08003C220202020202003E41414151FE
:10370000514E00FE0808080808FE00FE10101010B8
:1037100010FE000000FE00000000000000FE00009F
:103720000000000000FC02020202008080807F0195
:10373000010100FE08080C12224200FE1028444439
:10374000824100FE02020202020200FE80808080AE
:10375000808000FE2010081020FE00FE08102010BF
:1037600008FE00FE2010080402FE00FE04081020DF
:1037700040FE003C22222222223C003E41414141A7
:10378000413E00FE222222221E0000FE11111111D4
:10379000110E003C2222222A3A0C003E4141515196
:1037A000519E00FE22222C32221200FE11111131F4
:1037B000514E001C2222020C201C004E494949494E
:1037C000493200020202FE02020200010101FF0171
:1037D0000101007E02020202027E00FE81818181DF
:1037E00081FE007E0202040810E000FC424121112B
:1037F000090700FE0204080402FE00FE0204080499
:1038000002FE004222120C1222420082442810289A
:103810004482004222120C0C0C0C0082442810102E
:10382000101000060A12224282FE00FE824222127C
:103830000A0600FE02020202020200FE8080808070
:1038400080FE00402010080402000001020408105D
:10385000200000FE8080808080FE00FE02020202C6
:1038600002FE00040810200000000000000000001C
:103870000000000000000000000000000000000048
:1038800000FF00080402000000000000000000002B
:103890000000000000003C023E4200003E413E426B
:1038A0003E0000FE1222221C000000FE5149493653
:1038B00000000000001C220202020000003E414104
:1038C000220000001C222212FE000000364949514D
:1038D000FE000000001C2A2A2A1800003E55494913
:1038E0003200000010FE120202040040FE2101011D
:1038F00000000000003E4949493E00001E292929D8
:103900001E0100FE1010100E000000FE101010F03E
:103910000000000000EC00000000000000FA0000C1
:103920000000000000FC020200000000807F010196
:10393000000000FE04040000000000FE0810224108
:103940000000000000FE00000000000000FD00007C
:1039500000000000007E107C107C0000FC20F8209D
:10396000F8000000003E202020000000FC2222225F
:1039700000000000001C22221C000000003E41410B
:103980003E000000FE22221E00000000FE51513EBB
:10399000000000001E2222FE000000003E5151FEE9
:1039A0000000000000FE10080800000000FE1010DB
:1039B0000800000000242A2A1A080000005252526F
:1039C00024000008083E080802020010107F1010B2
:1039D00000000000003C0202023E000000BC8282A7
:1039E000FC000000003C0204380000000078844421
:1039F000180000007E0418047E000000FC08300857
:103A0000FC00000042241824420000008254385474
:103A100082000000380404027C0000007C82818166
:103A20007F000000060A1222000000007E8A92A297
:103A3000660000000404040C080800101010302078
:103A4000200000000000FE00000000000000FE005A
:103A500000000010100C04040400000808301010CE
:103A6000100000000000000000000006060000003A
:103A700000000000A43B0008000000204C000000F3
:103A800028010008F03B00084C00002094070000CB
:103A9000440100081001000043000000F8FFFFFF90
:103AA0000040404040404040404041414141414051
:103AB0004040404040404040404040404040404006
:103AC0004005020202020202020202020202020295
:103AD000022020202020202020202002020202029A
:103AE00002029090909090901010101010101010F2
:103AF00010101010101010101010101002020202FE
:103B00000202888888888888080808080808080841
:103B1000080808080808080808080808020202023D
:103B20004000000000000000000000000000000055
:103B30000000000000000000000000000000000085
:103B40000000000000000000000000000000000075
:103B50000000000000000000000000000000000065
:103B60000000000000000000000000000000000055
:103B70000000000000000000000000000000000045
:103B80000000000000000000000000000000000035
:103B90000000000000000000000000000000000025
:103BA0000000000000000000000000000000000015
:103BB0004001F00000A24A040000000000000000E4
:103BC00001020304060708090100000000000000CC
:103BD00000000000000000000000000000000102E2
:103BE0000304010203040607080902040608000092
:04000005080000ED02
:00000001FF
